{
  "_format": "hh-sol-artifact-1",
  "contractName": "EduAuthenticate",
  "sourceName": "contracts/EduAuthenticate.sol",
  "abi": [
    {
      "inputs": [],
      "stateMutability": "nonpayable",
      "type": "constructor"
    },
    {
      "inputs": [],
      "name": "AccessControlBadConfirmation",
      "type": "error"
    },
    {
      "inputs": [
        {
          "internalType": "address",
          "name": "account",
          "type": "address"
        },
        {
          "internalType": "bytes32",
          "name": "neededRole",
          "type": "bytes32"
        }
      ],
      "name": "AccessControlUnauthorizedAccount",
      "type": "error"
    },
    {
      "inputs": [],
      "name": "ReentrancyGuardReentrantCall",
      "type": "error"
    },
    {
      "anonymous": false,
      "inputs": [
        {
          "indexed": true,
          "internalType": "address",
          "name": "oldAdmin",
          "type": "address"
        },
        {
          "indexed": true,
          "internalType": "address",
          "name": "newAdmin",
          "type": "address"
        }
      ],
      "name": "AdminRoleTransferred",
      "type": "event"
    },
    {
      "anonymous": false,
      "inputs": [
        {
          "indexed": true,
          "internalType": "bytes32",
          "name": "certIdHash",
          "type": "bytes32"
        },
        {
          "indexed": false,
          "internalType": "string",
          "name": "certId",
          "type": "string"
        },
        {
          "indexed": true,
          "internalType": "address",
          "name": "recipient",
          "type": "address"
        },
        {
          "indexed": false,
          "internalType": "bytes32",
          "name": "docHash",
          "type": "bytes32"
        },
        {
          "indexed": false,
          "internalType": "string",
          "name": "metadataURI",
          "type": "string"
        }
      ],
      "name": "CertificateIssued",
      "type": "event"
    },
    {
      "anonymous": false,
      "inputs": [
        {
          "indexed": true,
          "internalType": "bytes32",
          "name": "certIdHash",
          "type": "bytes32"
        },
        {
          "indexed": true,
          "internalType": "address",
          "name": "revoker",
          "type": "address"
        },
        {
          "indexed": false,
          "internalType": "string",
          "name": "reason",
          "type": "string"
        }
      ],
      "name": "CertificateRevoked",
      "type": "event"
    },
    {
      "anonymous": false,
      "inputs": [
        {
          "indexed": true,
          "internalType": "bytes32",
          "name": "role",
          "type": "bytes32"
        },
        {
          "indexed": true,
          "internalType": "bytes32",
          "name": "previousAdminRole",
          "type": "bytes32"
        },
        {
          "indexed": true,
          "internalType": "bytes32",
          "name": "newAdminRole",
          "type": "bytes32"
        }
      ],
      "name": "RoleAdminChanged",
      "type": "event"
    },
    {
      "anonymous": false,
      "inputs": [
        {
          "indexed": true,
          "internalType": "bytes32",
          "name": "role",
          "type": "bytes32"
        },
        {
          "indexed": true,
          "internalType": "address",
          "name": "account",
          "type": "address"
        },
        {
          "indexed": true,
          "internalType": "address",
          "name": "sender",
          "type": "address"
        }
      ],
      "name": "RoleGranted",
      "type": "event"
    },
    {
      "anonymous": false,
      "inputs": [
        {
          "indexed": true,
          "internalType": "bytes32",
          "name": "role",
          "type": "bytes32"
        },
        {
          "indexed": true,
          "internalType": "address",
          "name": "account",
          "type": "address"
        },
        {
          "indexed": true,
          "internalType": "address",
          "name": "sender",
          "type": "address"
        }
      ],
      "name": "RoleRevoked",
      "type": "event"
    },
    {
      "inputs": [],
      "name": "DEFAULT_ADMIN_ROLE",
      "outputs": [
        {
          "internalType": "bytes32",
          "name": "",
          "type": "bytes32"
        }
      ],
      "stateMutability": "view",
      "type": "function"
    },
    {
      "inputs": [],
      "name": "UNIVERSITY_ADMIN_ROLE",
      "outputs": [
        {
          "internalType": "bytes32",
          "name": "",
          "type": "bytes32"
        }
      ],
      "stateMutability": "view",
      "type": "function"
    },
    {
      "inputs": [
        {
          "internalType": "bytes32",
          "name": "",
          "type": "bytes32"
        }
      ],
      "name": "certificates",
      "outputs": [
        {
          "internalType": "bytes32",
          "name": "docHash",
          "type": "bytes32"
        },
        {
          "internalType": "address",
          "name": "recipient",
          "type": "address"
        },
        {
          "internalType": "uint256",
          "name": "issueDate",
          "type": "uint256"
        },
        {
          "internalType": "bool",
          "name": "isRevoked",
          "type": "bool"
        },
        {
          "internalType": "string",
          "name": "metadataURI",
          "type": "string"
        },
        {
          "internalType": "bool",
          "name": "exists",
          "type": "bool"
        }
      ],
      "stateMutability": "view",
      "type": "function"
    },
    {
      "inputs": [
        {
          "internalType": "bytes32",
          "name": "",
          "type": "bytes32"
        }
      ],
      "name": "docHashToCertIdHash",
      "outputs": [
        {
          "internalType": "bytes32",
          "name": "",
          "type": "bytes32"
        }
      ],
      "stateMutability": "view",
      "type": "function"
    },
    {
      "inputs": [
        {
          "internalType": "bytes32",
          "name": "role",
          "type": "bytes32"
        }
      ],
      "name": "getRoleAdmin",
      "outputs": [
        {
          "internalType": "bytes32",
          "name": "",
          "type": "bytes32"
        }
      ],
      "stateMutability": "view",
      "type": "function"
    },
    {
      "inputs": [
        {
          "internalType": "bytes32",
          "name": "role",
          "type": "bytes32"
        },
        {
          "internalType": "address",
          "name": "account",
          "type": "address"
        }
      ],
      "name": "grantRole",
      "outputs": [],
      "stateMutability": "nonpayable",
      "type": "function"
    },
    {
      "inputs": [
        {
          "internalType": "bytes32",
          "name": "role",
          "type": "bytes32"
        },
        {
          "internalType": "address",
          "name": "account",
          "type": "address"
        }
      ],
      "name": "hasRole",
      "outputs": [
        {
          "internalType": "bool",
          "name": "",
          "type": "bool"
        }
      ],
      "stateMutability": "view",
      "type": "function"
    },
    {
      "inputs": [
        {
          "internalType": "string[]",
          "name": "_certIds",
          "type": "string[]"
        },
        {
          "internalType": "bytes32[]",
          "name": "_docHashes",
          "type": "bytes32[]"
        },
        {
          "internalType": "address[]",
          "name": "_recipients",
          "type": "address[]"
        },
        {
          "internalType": "string[]",
          "name": "_metadataURIs",
          "type": "string[]"
        }
      ],
      "name": "issueBatch",
      "outputs": [],
      "stateMutability": "nonpayable",
      "type": "function"
    },
    {
      "inputs": [
        {
          "internalType": "string",
          "name": "_certId",
          "type": "string"
        },
        {
          "internalType": "bytes32",
          "name": "_docHash",
          "type": "bytes32"
        },
        {
          "internalType": "address",
          "name": "_recipient",
          "type": "address"
        },
        {
          "internalType": "string",
          "name": "_metadataURI",
          "type": "string"
        }
      ],
      "name": "issueCertificate",
      "outputs": [],
      "stateMutability": "nonpayable",
      "type": "function"
    },
    {
      "inputs": [
        {
          "internalType": "bytes32",
          "name": "role",
          "type": "bytes32"
        },
        {
          "internalType": "address",
          "name": "callerConfirmation",
          "type": "address"
        }
      ],
      "name": "renounceRole",
      "outputs": [],
      "stateMutability": "nonpayable",
      "type": "function"
    },
    {
      "inputs": [
        {
          "internalType": "string",
          "name": "_certId",
          "type": "string"
        },
        {
          "internalType": "string",
          "name": "_reason",
          "type": "string"
        }
      ],
      "name": "revokeCertificate",
      "outputs": [],
      "stateMutability": "nonpayable",
      "type": "function"
    },
    {
      "inputs": [
        {
          "internalType": "bytes32",
          "name": "role",
          "type": "bytes32"
        },
        {
          "internalType": "address",
          "name": "account",
          "type": "address"
        }
      ],
      "name": "revokeRole",
      "outputs": [],
      "stateMutability": "nonpayable",
      "type": "function"
    },
    {
      "inputs": [
        {
          "internalType": "bytes4",
          "name": "interfaceId",
          "type": "bytes4"
        }
      ],
      "name": "supportsInterface",
      "outputs": [
        {
          "internalType": "bool",
          "name": "",
          "type": "bool"
        }
      ],
      "stateMutability": "view",
      "type": "function"
    },
    {
      "inputs": [
        {
          "internalType": "bytes32",
          "name": "_docHash",
          "type": "bytes32"
        }
      ],
      "name": "verifyByDocHash",
      "outputs": [
        {
          "internalType": "bool",
          "name": "isValid",
          "type": "bool"
        },
        {
          "internalType": "bytes32",
          "name": "certIdHash",
          "type": "bytes32"
        }
      ],
      "stateMutability": "view",
      "type": "function"
    },
    {
      "inputs": [
        {
          "internalType": "string",
          "name": "_certId",
          "type": "string"
        }
      ],
      "name": "verifyCertificate",
      "outputs": [
        {
          "internalType": "bool",
          "name": "isValid",
          "type": "bool"
        },
        {
          "internalType": "bytes32",
          "name": "docHash",
          "type": "bytes32"
        },
        {
          "internalType": "string",
          "name": "metadataURI",
          "type": "string"
        },
        {
          "internalType": "uint256",
          "name": "issueDate",
          "type": "uint256"
        }
      ],
      "stateMutability": "view",
      "type": "function"
    }
  ],
  "bytecode": "0x60806040523480156200001157600080fd5b50600180819055506200002e6000801b336200006860201b60201c565b50620000617f04cf686f6cecf1cc6949bf887ddf308bd14279793ef5495bbdabe085dbc2824c336200006860201b60201c565b50620001dd565b60006200007c83836200016b60201b60201c565b6200016057600160008085815260200190815260200160002060000160008473ffffffffffffffffffffffffffffffffffffffff1673ffffffffffffffffffffffffffffffffffffffff16815260200190815260200160002060006101000a81548160ff021916908315150217905550620000fc620001d560201b60201c565b73ffffffffffffffffffffffffffffffffffffffff168273ffffffffffffffffffffffffffffffffffffffff16847f2f8788117e7eff1d82e926ec794901d17c78024a50270940304540a733656f0d60405160405180910390a46001905062000165565b600090505b92915050565b600080600084815260200190815260200160002060000160008373ffffffffffffffffffffffffffffffffffffffff1673ffffffffffffffffffffffffffffffffffffffff16815260200190815260200160002060009054906101000a900460ff16905092915050565b600033905090565b6123b080620001ed6000396000f3fe608060405234801561001057600080fd5b50600436106100f55760003560e01c8063742f068811610097578063a2c47eaf11610066578063a2c47eaf146102c7578063bc4f5bad146102e3578063c029a0f3146102ff578063d547741f1461031b576100f5565b8063742f0688146102115780638b23d8751461024657806391d1485414610279578063a217fddf146102a9576100f5565b8063248a9ca3116100d3578063248a9ca3146101785780632f2ff15d146101a857806336568abe146101c45780635d7b7b0c146101e0576100f5565b806301ffc9a7146100fa578063192631011461012a5780631b2bf3dc14610148575b600080fd5b610114600480360381019061010f9190611324565b610337565b604051610121919061136c565b60405180910390f35b6101326103b1565b60405161013f91906113a0565b60405180910390f35b610162600480360381019061015d91906113e7565b6103d5565b60405161016f91906113a0565b60405180910390f35b610192600480360381019061018d91906113e7565b6103ed565b60405161019f91906113a0565b60405180910390f35b6101c260048036038101906101bd9190611472565b61040c565b005b6101de60048036038101906101d99190611472565b61042e565b005b6101fa60048036038101906101f591906113e7565b6104a9565b6040516102089291906114b2565b60405180910390f35b61022b600480360381019061022691906113e7565b61063e565b60405161023d96959493929190611593565b60405180910390f35b610260600480360381019061025b9190611730565b61073c565b6040516102709493929190611779565b60405180910390f35b610293600480360381019061028e9190611472565b610937565b6040516102a0919061136c565b60405180910390f35b6102b16109a1565b6040516102be91906113a0565b60405180910390f35b6102e160048036038101906102dc91906117c5565b6109a8565b005b6102fd60048036038101906102f89190611864565b610c4c565b005b61031960048036038101906103149190611b48565b610dec565b005b61033560048036038101906103309190611472565b610f8d565b005b60007f7965db0b000000000000000000000000000000000000000000000000000000007bffffffffffffffffffffffffffffffffffffffffffffffffffffffff1916827bffffffffffffffffffffffffffffffffffffffffffffffffffffffff191614806103aa57506103a982610faf565b5b9050919050565b7f04cf686f6cecf1cc6949bf887ddf308bd14279793ef5495bbdabe085dbc2824c81565b60036020528060005260406000206000915090505481565b6000806000838152602001908152602001600020600101549050919050565b610415826103ed565b61041e81611019565b610428838361102d565b50505050565b61043661111e565b73ffffffffffffffffffffffffffffffffffffffff168173ffffffffffffffffffffffffffffffffffffffff161461049a576040517f6697b23200000000000000000000000000000000000000000000000000000000815260040160405180910390fd5b6104a48282611126565b505050565b600080600360008481526020019081526020016000205490506000801b81036104db5760008060001b91509150610639565b6000600260008381526020019081526020016000206040518060c0016040529081600082015481526020016001820160009054906101000a900473ffffffffffffffffffffffffffffffffffffffff1673ffffffffffffffffffffffffffffffffffffffff1673ffffffffffffffffffffffffffffffffffffffff168152602001600282015481526020016003820160009054906101000a900460ff1615151515815260200160048201805461059090611c4e565b80601f01602080910402602001604051908101604052809291908181526020018280546105bc90611c4e565b80156106095780601f106105de57610100808354040283529160200191610609565b820191906000526020600020905b8154815290600101906020018083116105ec57829003601f168201915b505050505081526020016005820160009054906101000a900460ff16151515158152505090508060600151159250505b915091565b60026020528060005260406000206000915090508060000154908060010160009054906101000a900473ffffffffffffffffffffffffffffffffffffffff16908060020154908060030160009054906101000a900460ff16908060040180546106a690611c4e565b80601f01602080910402602001604051908101604052809291908181526020018280546106d290611c4e565b801561071f5780601f106106f45761010080835404028352916020019161071f565b820191906000526020600020905b81548152906001019060200180831161070257829003601f168201915b5050505050908060050160009054906101000a900460ff16905086565b6000806060600080856040516020016107559190611cbb565b6040516020818303038152906040528051906020012090506002600082815260200190815260200160002060050160009054906101000a900460ff166107bc5760008060001b60006040518060200160405280600081525090945094509450945050610930565b6000600260008381526020019081526020016000206040518060c0016040529081600082015481526020016001820160009054906101000a900473ffffffffffffffffffffffffffffffffffffffff1673ffffffffffffffffffffffffffffffffffffffff1673ffffffffffffffffffffffffffffffffffffffff168152602001600282015481526020016003820160009054906101000a900460ff1615151515815260200160048201805461087190611c4e565b80601f016020809104026020016040519081016040528092919081815260200182805461089d90611c4e565b80156108ea5780601f106108bf576101008083540402835291602001916108ea565b820191906000526020600020905b8154815290600101906020018083116108cd57829003601f168201915b505050505081526020016005820160009054906101000a900460ff1615151515815250509050806060015115816000015182608001518360400151955095509550955050505b9193509193565b600080600084815260200190815260200160002060000160008373ffffffffffffffffffffffffffffffffffffffff1673ffffffffffffffffffffffffffffffffffffffff16815260200190815260200160002060009054906101000a900460ff16905092915050565b6000801b81565b7f04cf686f6cecf1cc6949bf887ddf308bd14279793ef5495bbdabe085dbc2824c6109d281611019565b6109da611218565b6000856040516020016109ed9190611cbb565b6040516020818303038152906040528051906020012090506002600082815260200190815260200160002060050160009054906101000a900460ff1615610a69576040517f08c379a0000000000000000000000000000000000000000000000000000000008152600401610a6090611d1e565b60405180910390fd5b6000801b600360008781526020019081526020016000205414610ac1576040517f08c379a0000000000000000000000000000000000000000000000000000000008152600401610ab890611d8a565b60405180910390fd5b6040518060c001604052808681526020018573ffffffffffffffffffffffffffffffffffffffff16815260200142815260200160001515815260200184815260200160011515815250600260008381526020019081526020016000206000820151816000015560208201518160010160006101000a81548173ffffffffffffffffffffffffffffffffffffffff021916908373ffffffffffffffffffffffffffffffffffffffff1602179055506040820151816002015560608201518160030160006101000a81548160ff0219169083151502179055506080820151816004019081610bad9190611f56565b5060a08201518160050160006101000a81548160ff0219169083151502179055509050508060036000878152602001908152602001600020819055508373ffffffffffffffffffffffffffffffffffffffff16817f9e1d4c274ad81b418e320fcee476ff8b6ac9b7041c8bab1fe19c24604e980312888887604051610c3493929190612028565b60405180910390a350610c4561125e565b5050505050565b7f04cf686f6cecf1cc6949bf887ddf308bd14279793ef5495bbdabe085dbc2824c610c7681611019565b600083604051602001610c899190611cbb565b6040516020818303038152906040528051906020012090506002600082815260200190815260200160002060050160009054906101000a900460ff16610d04576040517f08c379a0000000000000000000000000000000000000000000000000000000008152600401610cfb906120b9565b60405180910390fd5b6002600082815260200190815260200160002060030160009054906101000a900460ff1615610d68576040517f08c379a0000000000000000000000000000000000000000000000000000000008152600401610d5f90612125565b60405180910390fd5b60016002600083815260200190815260200160002060030160006101000a81548160ff0219169083151502179055503373ffffffffffffffffffffffffffffffffffffffff16817f3224cf2853d6d5ae7308445d2b6a116e69358ed7e25ed585df081187ef3e5e2d85604051610dde9190612145565b60405180910390a350505050565b7f04cf686f6cecf1cc6949bf887ddf308bd14279793ef5495bbdabe085dbc2824c610e1681611019565b610e1e611218565b8351855114610e62576040517f08c379a0000000000000000000000000000000000000000000000000000000008152600401610e59906121b3565b60405180910390fd5b8251855114610ea6576040517f08c379a0000000000000000000000000000000000000000000000000000000008152600401610e9d9061221f565b60405180910390fd5b8151855114610eea576040517f08c379a0000000000000000000000000000000000000000000000000000000008152600401610ee19061228b565b60405180910390fd5b60005b8551811015610f7d57610f6a868281518110610f0c57610f0b6122ab565b5b6020026020010151868381518110610f2757610f266122ab565b5b6020026020010151868481518110610f4257610f416122ab565b5b6020026020010151868581518110610f5d57610f5c6122ab565b5b60200260200101516109a8565b8080610f7590612309565b915050610eed565b50610f8661125e565b5050505050565b610f96826103ed565b610f9f81611019565b610fa98383611126565b50505050565b60007f01ffc9a7000000000000000000000000000000000000000000000000000000007bffffffffffffffffffffffffffffffffffffffffffffffffffffffff1916827bffffffffffffffffffffffffffffffffffffffffffffffffffffffff1916149050919050565b61102a8161102561111e565b611267565b50565b60006110398383610937565b61111357600160008085815260200190815260200160002060000160008473ffffffffffffffffffffffffffffffffffffffff1673ffffffffffffffffffffffffffffffffffffffff16815260200190815260200160002060006101000a81548160ff0219169083151502179055506110b061111e565b73ffffffffffffffffffffffffffffffffffffffff168273ffffffffffffffffffffffffffffffffffffffff16847f2f8788117e7eff1d82e926ec794901d17c78024a50270940304540a733656f0d60405160405180910390a460019050611118565b600090505b92915050565b600033905090565b60006111328383610937565b1561120d57600080600085815260200190815260200160002060000160008473ffffffffffffffffffffffffffffffffffffffff1673ffffffffffffffffffffffffffffffffffffffff16815260200190815260200160002060006101000a81548160ff0219169083151502179055506111aa61111e565b73ffffffffffffffffffffffffffffffffffffffff168273ffffffffffffffffffffffffffffffffffffffff16847ff6391f5c32d9c69d2a47ea670b442974b53935d1edc7fd64eb21e047a839171b60405160405180910390a460019050611212565b600090505b92915050565b600260015403611254576040517f3ee5aeb500000000000000000000000000000000000000000000000000000000815260040160405180910390fd5b6002600181905550565b60018081905550565b6112718282610937565b6112b45780826040517fe2517d3f0000000000000000000000000000000000000000000000000000000081526004016112ab929190612351565b60405180910390fd5b5050565b6000604051905090565b600080fd5b600080fd5b60007fffffffff0000000000000000000000000000000000000000000000000000000082169050919050565b611301816112cc565b811461130c57600080fd5b50565b60008135905061131e816112f8565b92915050565b60006020828403121561133a576113396112c2565b5b60006113488482850161130f565b91505092915050565b60008115159050919050565b61136681611351565b82525050565b6000602082019050611381600083018461135d565b92915050565b6000819050919050565b61139a81611387565b82525050565b60006020820190506113b56000830184611391565b92915050565b6113c481611387565b81146113cf57600080fd5b50565b6000813590506113e1816113bb565b92915050565b6000602082840312156113fd576113fc6112c2565b5b600061140b848285016113d2565b91505092915050565b600073ffffffffffffffffffffffffffffffffffffffff82169050919050565b600061143f82611414565b9050919050565b61144f81611434565b811461145a57600080fd5b50565b60008135905061146c81611446565b92915050565b60008060408385031215611489576114886112c2565b5b6000611497858286016113d2565b92505060206114a88582860161145d565b9150509250929050565b60006040820190506114c7600083018561135d565b6114d46020830184611391565b9392505050565b6114e481611434565b82525050565b6000819050919050565b6114fd816114ea565b82525050565b600081519050919050565b600082825260208201905092915050565b60005b8381101561153d578082015181840152602081019050611522565b60008484015250505050565b6000601f19601f8301169050919050565b600061156582611503565b61156f818561150e565b935061157f81856020860161151f565b61158881611549565b840191505092915050565b600060c0820190506115a86000830189611391565b6115b560208301886114db565b6115c260408301876114f4565b6115cf606083018661135d565b81810360808301526115e1818561155a565b90506115f060a083018461135d565b979650505050505050565b600080fd5b600080fd5b7f4e487b7100000000000000000000000000000000000000000000000000000000600052604160045260246000fd5b61163d82611549565b810181811067ffffffffffffffff8211171561165c5761165b611605565b5b80604052505050565b600061166f6112b8565b905061167b8282611634565b919050565b600067ffffffffffffffff82111561169b5761169a611605565b5b6116a482611549565b9050602081019050919050565b82818337600083830152505050565b60006116d36116ce84611680565b611665565b9050828152602081018484840111156116ef576116ee611600565b5b6116fa8482856116b1565b509392505050565b600082601f830112611717576117166115fb565b5b81356117278482602086016116c0565b91505092915050565b600060208284031215611746576117456112c2565b5b600082013567ffffffffffffffff811115611764576117636112c7565b5b61177084828501611702565b91505092915050565b600060808201905061178e600083018761135d565b61179b6020830186611391565b81810360408301526117ad818561155a565b90506117bc60608301846114f4565b95945050505050565b600080600080608085870312156117df576117de6112c2565b5b600085013567ffffffffffffffff8111156117fd576117fc6112c7565b5b61180987828801611702565b945050602061181a878288016113d2565b935050604061182b8782880161145d565b925050606085013567ffffffffffffffff81111561184c5761184b6112c7565b5b61185887828801611702565b91505092959194509250565b6000806040838503121561187b5761187a6112c2565b5b600083013567ffffffffffffffff811115611899576118986112c7565b5b6118a585828601611702565b925050602083013567ffffffffffffffff8111156118c6576118c56112c7565b5b6118d285828601611702565b9150509250929050565b600067ffffffffffffffff8211156118f7576118f6611605565b5b602082029050602081019050919050565b600080fd5b600061192061191b846118dc565b611665565b9050808382526020820190506020840283018581111561194357611942611908565b5b835b8181101561198a57803567ffffffffffffffff811115611968576119676115fb565b5b8086016119758982611702565b85526020850194505050602081019050611945565b5050509392505050565b600082601f8301126119a9576119a86115fb565b5b81356119b984826020860161190d565b91505092915050565b600067ffffffffffffffff8211156119dd576119dc611605565b5b602082029050602081019050919050565b6000611a016119fc846119c2565b611665565b90508083825260208201905060208402830185811115611a2457611a23611908565b5b835b81811015611a4d5780611a3988826113d2565b845260208401935050602081019050611a26565b5050509392505050565b600082601f830112611a6c57611a6b6115fb565b5b8135611a7c8482602086016119ee565b91505092915050565b600067ffffffffffffffff821115611aa057611a9f611605565b5b602082029050602081019050919050565b6000611ac4611abf84611a85565b611665565b90508083825260208201905060208402830185811115611ae757611ae6611908565b5b835b81811015611b105780611afc888261145d565b845260208401935050602081019050611ae9565b5050509392505050565b600082601f830112611b2f57611b2e6115fb565b5b8135611b3f848260208601611ab1565b91505092915050565b60008060008060808587031215611b6257611b616112c2565b5b600085013567ffffffffffffffff811115611b8057611b7f6112c7565b5b611b8c87828801611994565b945050602085013567ffffffffffffffff811115611bad57611bac6112c7565b5b611bb987828801611a57565b935050604085013567ffffffffffffffff811115611bda57611bd96112c7565b5b611be687828801611b1a565b925050606085013567ffffffffffffffff811115611c0757611c066112c7565b5b611c1387828801611994565b91505092959194509250565b7f4e487b7100000000000000000000000000000000000000000000000000000000600052602260045260246000fd5b60006002820490506001821680611c6657607f821691505b602082108103611c7957611c78611c1f565b5b50919050565b600081905092915050565b6000611c9582611503565b611c9f8185611c7f565b9350611caf81856020860161151f565b80840191505092915050565b6000611cc78284611c8a565b915081905092915050565b7f436572746966696361746520494420616c726561647920657869737473000000600082015250565b6000611d08601d8361150e565b9150611d1382611cd2565b602082019050919050565b60006020820190508181036000830152611d3781611cfb565b9050919050565b7f446f63756d656e74206861736820616c72656164792072656769737465726564600082015250565b6000611d7460208361150e565b9150611d7f82611d3e565b602082019050919050565b60006020820190508181036000830152611da381611d67565b9050919050565b60008190508160005260206000209050919050565b60006020601f8301049050919050565b600082821b905092915050565b600060088302611e0c7fffffffffffffffffffffffffffffffffffffffffffffffffffffffffffffffff82611dcf565b611e168683611dcf565b95508019841693508086168417925050509392505050565b6000819050919050565b6000611e53611e4e611e49846114ea565b611e2e565b6114ea565b9050919050565b6000819050919050565b611e6d83611e38565b611e81611e7982611e5a565b848454611ddc565b825550505050565b600090565b611e96611e89565b611ea1818484611e64565b505050565b5b81811015611ec557611eba600082611e8e565b600181019050611ea7565b5050565b601f821115611f0a57611edb81611daa565b611ee484611dbf565b81016020851015611ef3578190505b611f07611eff85611dbf565b830182611ea6565b50505b505050565b600082821c905092915050565b6000611f2d60001984600802611f0f565b1980831691505092915050565b6000611f468383611f1c565b9150826002028217905092915050565b611f5f82611503565b67ffffffffffffffff811115611f7857611f77611605565b5b611f828254611c4e565b611f8d828285611ec9565b600060209050601f831160018114611fc05760008415611fae578287015190505b611fb88582611f3a565b865550612020565b601f198416611fce86611daa565b60005b82811015611ff657848901518255600182019150602085019450602081019050611fd1565b86831015612013578489015161200f601f891682611f1c565b8355505b6001600288020188555050505b505050505050565b60006060820190508181036000830152612042818661155a565b90506120516020830185611391565b8181036040830152612063818461155a565b9050949350505050565b7f436572746966696361746520646f6573206e6f74206578697374000000000000600082015250565b60006120a3601a8361150e565b91506120ae8261206d565b602082019050919050565b600060208201905081810360008301526120d281612096565b9050919050565b7f416c7265616479207265766f6b65640000000000000000000000000000000000600082015250565b600061210f600f8361150e565b915061211a826120d9565b602082019050919050565b6000602082019050818103600083015261213e81612102565b9050919050565b6000602082019050818103600083015261215f818461155a565b905092915050565b7f4c656e677468206d69736d617463683a20646f63486173686573000000000000600082015250565b600061219d601a8361150e565b91506121a882612167565b602082019050919050565b600060208201905081810360008301526121cc81612190565b9050919050565b7f4c656e677468206d69736d617463683a20726563697069656e74730000000000600082015250565b6000612209601b8361150e565b9150612214826121d3565b602082019050919050565b60006020820190508181036000830152612238816121fc565b9050919050565b7f4c656e677468206d69736d617463683a206d6574616461746155524973000000600082015250565b6000612275601d8361150e565b91506122808261223f565b602082019050919050565b600060208201905081810360008301526122a481612268565b9050919050565b7f4e487b7100000000000000000000000000000000000000000000000000000000600052603260045260246000fd5b7f4e487b7100000000000000000000000000000000000000000000000000000000600052601160045260246000fd5b6000612314826114ea565b91507fffffffffffffffffffffffffffffffffffffffffffffffffffffffffffffffff8203612346576123456122da565b5b600182019050919050565b600060408201905061236660008301856114db565b6123736020830184611391565b939250505056fea2646970667358221220cd946a169b8b00c07da7e5ad41d21b057a0eaf648c6098b102b4ef6c24e7422f64736f6c63430008140033",
  "linkReferences": {},
  "deployedLinkReferences": {}
}